{
  "contractName": "Registry",
  "abi": [
    {
      "inputs": [],
      "stateMutability": "nonpayable",
      "type": "constructor"
    },
    {
      "inputs": [
        {
          "internalType": "address",
          "name": "",
          "type": "address"
        }
      ],
      "name": "admins",
      "outputs": [
        {
          "internalType": "address",
          "name": "adminAddress",
          "type": "address"
        },
        {
          "internalType": "string",
          "name": "city",
          "type": "string"
        },
        {
          "internalType": "string",
          "name": "district",
          "type": "string"
        },
        {
          "internalType": "string",
          "name": "state",
          "type": "string"
        }
      ],
      "stateMutability": "view",
      "type": "function"
    },
    {
      "inputs": [
        {
          "internalType": "string",
          "name": "",
          "type": "string"
        },
        {
          "internalType": "string",
          "name": "",
          "type": "string"
        },
        {
          "internalType": "string",
          "name": "",
          "type": "string"
        },
        {
          "internalType": "uint256",
          "name": "",
          "type": "uint256"
        }
      ],
      "name": "landDetalsMap",
      "outputs": [
        {
          "internalType": "address",
          "name": "owner",
          "type": "address"
        },
        {
          "internalType": "address",
          "name": "admin",
          "type": "address"
        },
        {
          "internalType": "uint256",
          "name": "propertyId",
          "type": "uint256"
        },
        {
          "internalType": "uint256",
          "name": "surveyNumber",
          "type": "uint256"
        },
        {
          "internalType": "uint256",
          "name": "index",
          "type": "uint256"
        },
        {
          "internalType": "bool",
          "name": "registered",
          "type": "bool"
        },
        {
          "internalType": "uint256",
          "name": "marketValue",
          "type": "uint256"
        },
        {
          "internalType": "bool",
          "name": "markAvailable",
          "type": "bool"
        },
        {
          "internalType": "uint256",
          "name": "noOfRequests",
          "type": "uint256"
        },
        {
          "internalType": "uint256",
          "name": "sqft",
          "type": "uint256"
        }
      ],
      "stateMutability": "view",
      "type": "function"
    },
    {
      "inputs": [
        {
          "internalType": "address",
          "name": "",
          "type": "address"
        },
        {
          "internalType": "uint256",
          "name": "",
          "type": "uint256"
        }
      ],
      "name": "ownerMapsProperty",
      "outputs": [
        {
          "internalType": "uint256",
          "name": "surveyNumber",
          "type": "uint256"
        },
        {
          "internalType": "string",
          "name": "state",
          "type": "string"
        },
        {
          "internalType": "string",
          "name": "district",
          "type": "string"
        },
        {
          "internalType": "string",
          "name": "city",
          "type": "string"
        }
      ],
      "stateMutability": "view",
      "type": "function"
    },
    {
      "inputs": [
        {
          "internalType": "address",
          "name": "",
          "type": "address"
        },
        {
          "internalType": "uint256",
          "name": "",
          "type": "uint256"
        }
      ],
      "name": "requestedLands",
      "outputs": [
        {
          "internalType": "uint256",
          "name": "surveyNumber",
          "type": "uint256"
        },
        {
          "internalType": "string",
          "name": "state",
          "type": "string"
        },
        {
          "internalType": "string",
          "name": "district",
          "type": "string"
        },
        {
          "internalType": "string",
          "name": "city",
          "type": "string"
        }
      ],
      "stateMutability": "view",
      "type": "function"
    },
    {
      "inputs": [],
      "name": "superAdmin",
      "outputs": [
        {
          "internalType": "address",
          "name": "",
          "type": "address"
        }
      ],
      "stateMutability": "view",
      "type": "function"
    },
    {
      "inputs": [],
      "name": "totalAdmins",
      "outputs": [
        {
          "internalType": "uint256",
          "name": "",
          "type": "uint256"
        }
      ],
      "stateMutability": "view",
      "type": "function"
    },
    {
      "inputs": [
        {
          "internalType": "address",
          "name": "",
          "type": "address"
        }
      ],
      "name": "userProfile",
      "outputs": [
        {
          "internalType": "address",
          "name": "userAddr",
          "type": "address"
        },
        {
          "internalType": "string",
          "name": "fullName",
          "type": "string"
        },
        {
          "internalType": "string",
          "name": "gender",
          "type": "string"
        },
        {
          "internalType": "string",
          "name": "email",
          "type": "string"
        },
        {
          "internalType": "uint256",
          "name": "contact",
          "type": "uint256"
        },
        {
          "internalType": "string",
          "name": "residentialAddr",
          "type": "string"
        },
        {
          "internalType": "uint256",
          "name": "totalIndices",
          "type": "uint256"
        },
        {
          "internalType": "uint256",
          "name": "requestIndices",
          "type": "uint256"
        }
      ],
      "stateMutability": "view",
      "type": "function"
    },
    {
      "inputs": [
        {
          "internalType": "address",
          "name": "_adminAddr",
          "type": "address"
        },
        {
          "internalType": "string",
          "name": "_state",
          "type": "string"
        },
        {
          "internalType": "string",
          "name": "_district",
          "type": "string"
        },
        {
          "internalType": "string",
          "name": "_city",
          "type": "string"
        }
      ],
      "name": "addAdmin",
      "outputs": [],
      "stateMutability": "nonpayable",
      "type": "function"
    },
    {
      "inputs": [],
      "name": "isAdmin",
      "outputs": [
        {
          "internalType": "bool",
          "name": "",
          "type": "bool"
        }
      ],
      "stateMutability": "view",
      "type": "function"
    },
    {
      "inputs": [
        {
          "internalType": "string",
          "name": "_state",
          "type": "string"
        },
        {
          "internalType": "string",
          "name": "_district",
          "type": "string"
        },
        {
          "internalType": "string",
          "name": "_city",
          "type": "string"
        },
        {
          "internalType": "uint256",
          "name": "_propertyId",
          "type": "uint256"
        },
        {
          "internalType": "uint256",
          "name": "_surveyNo",
          "type": "uint256"
        },
        {
          "internalType": "address",
          "name": "_owner",
          "type": "address"
        },
        {
          "internalType": "uint256",
          "name": "_marketValue",
          "type": "uint256"
        },
        {
          "internalType": "uint256",
          "name": "_sqft",
          "type": "uint256"
        }
      ],
      "name": "registerLand",
      "outputs": [],
      "stateMutability": "nonpayable",
      "type": "function"
    },
    {
      "inputs": [
        {
          "internalType": "string",
          "name": "_fullName",
          "type": "string"
        },
        {
          "internalType": "string",
          "name": "_gender",
          "type": "string"
        },
        {
          "internalType": "string",
          "name": "_email",
          "type": "string"
        },
        {
          "internalType": "uint256",
          "name": "_contact",
          "type": "uint256"
        },
        {
          "internalType": "string",
          "name": "_residentialAddr",
          "type": "string"
        }
      ],
      "name": "setUserProfile",
      "outputs": [],
      "stateMutability": "nonpayable",
      "type": "function"
    },
    {
      "inputs": [
        {
          "internalType": "uint256",
          "name": "indexNo",
          "type": "uint256"
        }
      ],
      "name": "markMyPropertyAvailable",
      "outputs": [],
      "stateMutability": "nonpayable",
      "type": "function"
    },
    {
      "inputs": [
        {
          "internalType": "string",
          "name": "_state",
          "type": "string"
        },
        {
          "internalType": "string",
          "name": "_district",
          "type": "string"
        },
        {
          "internalType": "string",
          "name": "_city",
          "type": "string"
        },
        {
          "internalType": "uint256",
          "name": "_surveyNo",
          "type": "uint256"
        }
      ],
      "name": "RequestForBuy",
      "outputs": [],
      "stateMutability": "nonpayable",
      "type": "function"
    },
    {
      "inputs": [
        {
          "internalType": "uint256",
          "name": "_index",
          "type": "uint256"
        },
        {
          "internalType": "uint256",
          "name": "_reqNo",
          "type": "uint256"
        }
      ],
      "name": "AcceptRequest",
      "outputs": [],
      "stateMutability": "nonpayable",
      "type": "function"
    },
    {
      "inputs": [
        {
          "internalType": "string",
          "name": "_state",
          "type": "string"
        },
        {
          "internalType": "string",
          "name": "_district",
          "type": "string"
        },
        {
          "internalType": "string",
          "name": "_city",
          "type": "string"
        },
        {
          "internalType": "uint256",
          "name": "_surveyNo",
          "type": "uint256"
        }
      ],
      "name": "getLandDetails",
      "outputs": [
        {
          "internalType": "address",
          "name": "",
          "type": "address"
        },
        {
          "internalType": "uint256",
          "name": "",
          "type": "uint256"
        },
        {
          "internalType": "uint256",
          "name": "",
          "type": "uint256"
        },
        {
          "internalType": "uint256",
          "name": "",
          "type": "uint256"
        },
        {
          "internalType": "uint256",
          "name": "",
          "type": "uint256"
        }
      ],
      "stateMutability": "view",
      "type": "function"
    },
    {
      "inputs": [
        {
          "internalType": "string",
          "name": "_state",
          "type": "string"
        },
        {
          "internalType": "string",
          "name": "_district",
          "type": "string"
        },
        {
          "internalType": "string",
          "name": "_city",
          "type": "string"
        },
        {
          "internalType": "uint256",
          "name": "_surveyNo",
          "type": "uint256"
        }
      ],
      "name": "getRequestCnt_propId",
      "outputs": [
        {
          "internalType": "uint256",
          "name": "",
          "type": "uint256"
        },
        {
          "internalType": "uint256",
          "name": "",
          "type": "uint256"
        }
      ],
      "stateMutability": "view",
      "type": "function"
    },
    {
      "inputs": [
        {
          "internalType": "string",
          "name": "_state",
          "type": "string"
        },
        {
          "internalType": "string",
          "name": "_district",
          "type": "string"
        },
        {
          "internalType": "string",
          "name": "_city",
          "type": "string"
        },
        {
          "internalType": "uint256",
          "name": "_surveyNo",
          "type": "uint256"
        },
        {
          "internalType": "uint256",
          "name": "_reqIndex",
          "type": "uint256"
        }
      ],
      "name": "getRequesterDetail",
      "outputs": [
        {
          "internalType": "address",
          "name": "",
          "type": "address"
        }
      ],
      "stateMutability": "view",
      "type": "function"
    },
    {
      "inputs": [
        {
          "internalType": "string",
          "name": "_state",
          "type": "string"
        },
        {
          "internalType": "string",
          "name": "_district",
          "type": "string"
        },
        {
          "internalType": "string",
          "name": "_city",
          "type": "string"
        },
        {
          "internalType": "uint256",
          "name": "_surveyNo",
          "type": "uint256"
        }
      ],
      "name": "isAvailable",
      "outputs": [
        {
          "internalType": "bool",
          "name": "",
          "type": "bool"
        }
      ],
      "stateMutability": "view",
      "type": "function"
    },
    {
      "inputs": [
        {
          "internalType": "uint256",
          "name": "indx",
          "type": "uint256"
        }
      ],
      "name": "getOwnerOwns",
      "outputs": [
        {
          "internalType": "string",
          "name": "",
          "type": "string"
        },
        {
          "internalType": "string",
          "name": "",
          "type": "string"
        },
        {
          "internalType": "string",
          "name": "",
          "type": "string"
        },
        {
          "internalType": "uint256",
          "name": "",
          "type": "uint256"
        }
      ],
      "stateMutability": "view",
      "type": "function"
    },
    {
      "inputs": [
        {
          "internalType": "uint256",
          "name": "indx",
          "type": "uint256"
        }
      ],
      "name": "getRequestedLands",
      "outputs": [
        {
          "internalType": "string",
          "name": "",
          "type": "string"
        },
        {
          "internalType": "string",
          "name": "",
          "type": "string"
        },
        {
          "internalType": "string",
          "name": "",
          "type": "string"
        },
        {
          "internalType": "uint256",
          "name": "",
          "type": "uint256"
        }
      ],
      "stateMutability": "view",
      "type": "function"
    },
    {
      "inputs": [],
      "name": "getUserProfile",
      "outputs": [
        {
          "internalType": "string",
          "name": "",
          "type": "string"
        },
        {
          "internalType": "string",
          "name": "",
          "type": "string"
        },
        {
          "internalType": "string",
          "name": "",
          "type": "string"
        },
        {
          "internalType": "uint256",
          "name": "",
          "type": "uint256"
        },
        {
          "internalType": "string",
          "name": "",
          "type": "string"
        }
      ],
      "stateMutability": "view",
      "type": "function"
    },
    {
      "inputs": [],
      "name": "getIndices",
      "outputs": [
        {
          "internalType": "uint256",
          "name": "",
          "type": "uint256"
        },
        {
          "internalType": "uint256",
          "name": "",
          "type": "uint256"
        }
      ],
      "stateMutability": "view",
      "type": "function"
    },
    {
      "inputs": [
        {
          "internalType": "string",
          "name": "_state",
          "type": "string"
        },
        {
          "internalType": "string",
          "name": "_district",
          "type": "string"
        },
        {
          "internalType": "string",
          "name": "_city",
          "type": "string"
        },
        {
          "internalType": "uint256",
          "name": "_surveyNo",
          "type": "uint256"
        }
      ],
      "name": "didIRequested",
      "outputs": [
        {
          "internalType": "bool",
          "name": "",
          "type": "bool"
        }
      ],
      "stateMutability": "view",
      "type": "function"
    }
  ],
  "bytecode": "0x608060405234801561001057600080fd5b50336000806101000a81548173ffffffffffffffffffffffffffffffffffffffff021916908373ffffffffffffffffffffffffffffffffffffffff160217905550614c5c806100606000396000f3fe608060405234801561001057600080fd5b506004361061014d5760003560e01c80636d1b9a8e116100c3578063d06efd671161007c578063d06efd67146103f7578063d1dbeff214610428578063d41cc5c81461045b578063e331ad7c14610477578063eaec23fa146104ab578063eb68048b146104db5761014d565b80636d1b9a8e1461031c5780636f61c7441461034f5780638a80e4e414610371578063992369da1461038d578063b6db75a0146103bd578063bfde241c146103db5761014d565b80632a52ee86116101155780632a52ee861461022f5780632ca305f31461024b5780633bbd43b31461027e578063429b62e5146102ae57806344e05734146102e15780635863056d146102fd5761014d565b806303825d6c146101525780630e2279af1461016e5780631555ff1e146101a15780631c8e8962146101da57806329575f6a14610211575b600080fd5b61016c60048036038101906101679190613bae565b6104f9565b005b61018860048036038101906101839190613c9f565b6105d4565b6040516101989493929190613d6d565b60405180910390f35b6101bb60048036038101906101b69190613dc7565b6107a9565b6040516101d19a99989796959493929190613eac565b60405180910390f35b6101f460048036038101906101ef9190613f48565b6108c0565b604051610208989796959493929190613f75565b60405180910390f35b610219610b48565b604051610226919061400f565b60405180910390f35b6102496004803603810190610244919061402a565b610b6c565b005b61026560048036038101906102609190614134565b6111cc565b6040516102759493929190614161565b60405180910390f35b610298600480360381019061029391906141bb565b6114e1565b6040516102a5919061400f565b60405180910390f35b6102c860048036038101906102c39190613f48565b611592565b6040516102d8949392919061428a565b60405180910390f35b6102fb60048036038101906102f69190614134565b61177a565b005b610305611bba565b6040516103139291906142e4565b60405180910390f35b61033660048036038101906103319190614134565b611c57565b6040516103469493929190614161565b60405180910390f35b610357611f6c565b60405161036895949392919061430d565b60405180910390f35b61038b60048036038101906103869190613dc7565b612313565b005b6103a760048036038101906103a29190613dc7565b6125e5565b6040516103b4919061437c565b60405180910390f35b6103c561266e565b6040516103d2919061437c565b60405180910390f35b6103f560048036038101906103f09190614397565b6127b1565b005b610411600480360381019061040c9190613dc7565b61284d565b60405161041f9291906142e4565b60405180910390f35b610442600480360381019061043d9190613c9f565b61293f565b6040516104529493929190613d6d565b60405180910390f35b61047560048036038101906104709190614482565b612b14565b005b610491600480360381019061048c9190613dc7565b6135f5565b6040516104a29594939291906144c2565b60405180910390f35b6104c560048036038101906104c09190613dc7565b613866565b6040516104d2919061437c565b60405180910390f35b6104e3613993565b6040516104f09190614515565b60405180910390f35b6000600260008673ffffffffffffffffffffffffffffffffffffffff1673ffffffffffffffffffffffffffffffffffffffff16815260200190815260200160002090506001600081548092919061054f9061455f565b9190505550848160000160006101000a81548173ffffffffffffffffffffffffffffffffffffffff021916908373ffffffffffffffffffffffffffffffffffffffff160217905550818160010190816105a891906147b3565b50828160020190816105ba91906147b3565b50838160030190816105cc91906147b3565b505050505050565b60046020528160005260406000206020528060005260406000206000915091505080600001549080600101805461060a906145d6565b80601f0160208091040260200160405190810160405280929190818152602001828054610636906145d6565b80156106835780601f1061065857610100808354040283529160200191610683565b820191906000526020600020905b81548152906001019060200180831161066657829003601f168201915b505050505090806002018054610698906145d6565b80601f01602080910402602001604051908101604052809291908181526020018280546106c4906145d6565b80156107115780601f106106e657610100808354040283529160200191610711565b820191906000526020600020905b8154815290600101906020018083116106f457829003601f168201915b505050505090806003018054610726906145d6565b80601f0160208091040260200160405190810160405280929190818152602001828054610752906145d6565b801561079f5780601f106107745761010080835404028352916020019161079f565b820191906000526020600020905b81548152906001019060200180831161078257829003601f168201915b5050505050905084565b60058480516020810182018051848252602083016020850120818352809550505050505083805160208101820180518482526020830160208501208183528095505050505050828051602081018201805184825260208301602085012081835280955050505050506020528060005260406000206000935093505050508060000160009054906101000a900473ffffffffffffffffffffffffffffffffffffffff16908060010160009054906101000a900473ffffffffffffffffffffffffffffffffffffffff16908060020154908060030154908060040154908060050160009054906101000a900460ff16908060060154908060070160009054906101000a900460ff169080600901549080600a015490508a565b60066020528060005260406000206000915090508060000160009054906101000a900473ffffffffffffffffffffffffffffffffffffffff1690806001018054610909906145d6565b80601f0160208091040260200160405190810160405280929190818152602001828054610935906145d6565b80156109825780601f1061095757610100808354040283529160200191610982565b820191906000526020600020905b81548152906001019060200180831161096557829003601f168201915b505050505090806002018054610997906145d6565b80601f01602080910402602001604051908101604052809291908181526020018280546109c3906145d6565b8015610a105780601f106109e557610100808354040283529160200191610a10565b820191906000526020600020905b8154815290600101906020018083116109f357829003601f168201915b505050505090806003018054610a25906145d6565b80601f0160208091040260200160405190810160405280929190818152602001828054610a51906145d6565b8015610a9e5780601f10610a7357610100808354040283529160200191610a9e565b820191906000526020600020905b815481529060010190602001808311610a8157829003601f168201915b505050505090806004015490806005018054610ab9906145d6565b80601f0160208091040260200160405190810160405280929190818152602001828054610ae5906145d6565b8015610b325780601f10610b0757610100808354040283529160200191610b32565b820191906000526020600020905b815481529060010190602001808311610b1557829003601f168201915b5050505050908060060154908060070154905088565b60008054906101000a900473ffffffffffffffffffffffffffffffffffffffff1681565b3373ffffffffffffffffffffffffffffffffffffffff16600260003373ffffffffffffffffffffffffffffffffffffffff1673ffffffffffffffffffffffffffffffffffffffff16815260200190815260200160002060000160009054906101000a900473ffffffffffffffffffffffffffffffffffffffff1673ffffffffffffffffffffffffffffffffffffffff1614610c3c576040517f08c379a0000000000000000000000000000000000000000000000000000000008152600401610c33906148d1565b60405180910390fd5b87604051602001610c4d919061492d565b60405160208183030381529060405280519060200120600260003373ffffffffffffffffffffffffffffffffffffffff1673ffffffffffffffffffffffffffffffffffffffff168152602001908152602001600020600301604051602001610cb591906149c7565b60405160208183030381529060405280519060200120148015610d64575086604051602001610ce4919061492d565b60405160208183030381529060405280519060200120600260003373ffffffffffffffffffffffffffffffffffffffff1673ffffffffffffffffffffffffffffffffffffffff168152602001908152602001600020600201604051602001610d4c91906149c7565b60405160208183030381529060405280519060200120145b8015610dfc575085604051602001610d7c919061492d565b60405160208183030381529060405280519060200120600260003373ffffffffffffffffffffffffffffffffffffffff1673ffffffffffffffffffffffffffffffffffffffff168152602001908152602001600020600101604051602001610de491906149c7565b60405160208183030381529060405280519060200120145b610e3b576040517f08c379a0000000000000000000000000000000000000000000000000000000008152600401610e3290614a50565b60405180910390fd5b60001515600589604051610e4f919061492d565b908152602001604051809103902088604051610e6b919061492d565b908152602001604051809103902087604051610e87919061492d565b9081526020016040518091039020600086815260200190815260200160002060050160009054906101000a900460ff16151514610ef9576040517f08c379a0000000000000000000000000000000000000000000000000000000008152600401610ef090614ae2565b60405180910390fd5b6000600589604051610f0b919061492d565b908152602001604051809103902088604051610f27919061492d565b908152602001604051809103902087604051610f43919061492d565b9081526020016040518091039020600086815260200190815260200160002090506000600360008673ffffffffffffffffffffffffffffffffffffffff1673ffffffffffffffffffffffffffffffffffffffff1681526020019081526020016000206000600660008873ffffffffffffffffffffffffffffffffffffffff1673ffffffffffffffffffffffffffffffffffffffff1681526020019081526020016000206006015481526020019081526020016000209050848260000160006101000a81548173ffffffffffffffffffffffffffffffffffffffff021916908373ffffffffffffffffffffffffffffffffffffffff160217905550338260010160006101000a81548173ffffffffffffffffffffffffffffffffffffffff021916908373ffffffffffffffffffffffffffffffffffffffff160217905550868260020181905550858260030181905550600660008673ffffffffffffffffffffffffffffffffffffffff1673ffffffffffffffffffffffffffffffffffffffff16815260200190815260200160002060060154826004018190555060018260050160006101000a81548160ff02191690831515021790555083826006018190555060008260070160006101000a81548160ff0219169083151502179055508282600a01819055508581600001819055508981600101908161114391906147b3565b508881600201908161115591906147b3565b508781600301908161116791906147b3565b50600660008673ffffffffffffffffffffffffffffffffffffffff1673ffffffffffffffffffffffffffffffffffffffff16815260200190815260200160002060060160008154809291906111bb9061455f565b919050555050505050505050505050565b6060806060600080600460003373ffffffffffffffffffffffffffffffffffffffff1673ffffffffffffffffffffffffffffffffffffffff16815260200190815260200160002060008781526020019081526020016000206000015490506000600460003373ffffffffffffffffffffffffffffffffffffffff1673ffffffffffffffffffffffffffffffffffffffff1681526020019081526020016000206000888152602001908152602001600020600101805461128a906145d6565b80601f01602080910402602001604051908101604052809291908181526020018280546112b6906145d6565b80156113035780601f106112d857610100808354040283529160200191611303565b820191906000526020600020905b8154815290600101906020018083116112e657829003601f168201915b505050505090506000600460003373ffffffffffffffffffffffffffffffffffffffff1673ffffffffffffffffffffffffffffffffffffffff1681526020019081526020016000206000898152602001908152602001600020600201805461136a906145d6565b80601f0160208091040260200160405190810160405280929190818152602001828054611396906145d6565b80156113e35780601f106113b8576101008083540402835291602001916113e3565b820191906000526020600020905b8154815290600101906020018083116113c657829003601f168201915b505050505090506000600460003373ffffffffffffffffffffffffffffffffffffffff1673ffffffffffffffffffffffffffffffffffffffff16815260200190815260200160002060008a8152602001908152602001600020600301805461144a906145d6565b80601f0160208091040260200160405190810160405280929190818152602001828054611476906145d6565b80156114c35780601f10611498576101008083540402835291602001916114c3565b820191906000526020600020905b8154815290600101906020018083116114a657829003601f168201915b50505050509050828282869750975097509750505050509193509193565b6000806005876040516114f4919061492d565b908152602001604051809103902086604051611510919061492d565b90815260200160405180910390208560405161152c919061492d565b90815260200160405180910390206000858152602001908152602001600020600801600084815260200190815260200160002060000160009054906101000a900473ffffffffffffffffffffffffffffffffffffffff1690508091505095945050505050565b60026020528060005260406000206000915090508060000160009054906101000a900473ffffffffffffffffffffffffffffffffffffffff16908060010180546115db906145d6565b80601f0160208091040260200160405190810160405280929190818152602001828054611607906145d6565b80156116545780601f1061162957610100808354040283529160200191611654565b820191906000526020600020905b81548152906001019060200180831161163757829003601f168201915b505050505090806002018054611669906145d6565b80601f0160208091040260200160405190810160405280929190818152602001828054611695906145d6565b80156116e25780601f106116b7576101008083540402835291602001916116e2565b820191906000526020600020905b8154815290600101906020018083116116c557829003601f168201915b5050505050908060030180546116f7906145d6565b80601f0160208091040260200160405190810160405280929190818152602001828054611723906145d6565b80156117705780601f1061174557610100808354040283529160200191611770565b820191906000526020600020905b81548152906001019060200180831161175357829003601f168201915b5050505050905084565b6000600360003373ffffffffffffffffffffffffffffffffffffffff1673ffffffffffffffffffffffffffffffffffffffff168152602001908152602001600020600083815260200190815260200160002060010180546117da906145d6565b80601f0160208091040260200160405190810160405280929190818152602001828054611806906145d6565b80156118535780601f1061182857610100808354040283529160200191611853565b820191906000526020600020905b81548152906001019060200180831161183657829003601f168201915b505050505090506000600360003373ffffffffffffffffffffffffffffffffffffffff1673ffffffffffffffffffffffffffffffffffffffff168152602001908152602001600020600084815260200190815260200160002060020180546118ba906145d6565b80601f01602080910402602001604051908101604052809291908181526020018280546118e6906145d6565b80156119335780601f1061190857610100808354040283529160200191611933565b820191906000526020600020905b81548152906001019060200180831161191657829003601f168201915b505050505090506000600360003373ffffffffffffffffffffffffffffffffffffffff1673ffffffffffffffffffffffffffffffffffffffff1681526020019081526020016000206000858152602001908152602001600020600301805461199a906145d6565b80601f01602080910402602001604051908101604052809291908181526020018280546119c6906145d6565b8015611a135780601f106119e857610100808354040283529160200191611a13565b820191906000526020600020905b8154815290600101906020018083116119f657829003601f168201915b505050505090506000600360003373ffffffffffffffffffffffffffffffffffffffff1673ffffffffffffffffffffffffffffffffffffffff168152602001908152602001600020600086815260200190815260200160002060000154905060001515600585604051611a86919061492d565b908152602001604051809103902084604051611aa2919061492d565b908152602001604051809103902083604051611abe919061492d565b9081526020016040518091039020600083815260200190815260200160002060070160009054906101000a900460ff16151514611b30576040517f08c379a0000000000000000000000000000000000000000000000000000000008152600401611b2790614b74565b60405180910390fd5b6001600585604051611b42919061492d565b908152602001604051809103902084604051611b5e919061492d565b908152602001604051809103902083604051611b7a919061492d565b9081526020016040518091039020600083815260200190815260200160002060070160006101000a81548160ff0219169083151502179055505050505050565b6000806000600660003373ffffffffffffffffffffffffffffffffffffffff1673ffffffffffffffffffffffffffffffffffffffff1681526020019081526020016000206006015490506000600660003373ffffffffffffffffffffffffffffffffffffffff1673ffffffffffffffffffffffffffffffffffffffff16815260200190815260200160002060070154905081819350935050509091565b6060806060600080600360003373ffffffffffffffffffffffffffffffffffffffff1673ffffffffffffffffffffffffffffffffffffffff16815260200190815260200160002060008781526020019081526020016000206000015490506000600360003373ffffffffffffffffffffffffffffffffffffffff1673ffffffffffffffffffffffffffffffffffffffff16815260200190815260200160002060008881526020019081526020016000206001018054611d15906145d6565b80601f0160208091040260200160405190810160405280929190818152602001828054611d41906145d6565b8015611d8e5780601f10611d6357610100808354040283529160200191611d8e565b820191906000526020600020905b815481529060010190602001808311611d7157829003601f168201915b505050505090506000600360003373ffffffffffffffffffffffffffffffffffffffff1673ffffffffffffffffffffffffffffffffffffffff16815260200190815260200160002060008981526020019081526020016000206002018054611df5906145d6565b80601f0160208091040260200160405190810160405280929190818152602001828054611e21906145d6565b8015611e6e5780601f10611e4357610100808354040283529160200191611e6e565b820191906000526020600020905b815481529060010190602001808311611e5157829003601f168201915b505050505090506000600360003373ffffffffffffffffffffffffffffffffffffffff1673ffffffffffffffffffffffffffffffffffffffff16815260200190815260200160002060008a81526020019081526020016000206003018054611ed5906145d6565b80601f0160208091040260200160405190810160405280929190818152602001828054611f01906145d6565b8015611f4e5780601f10611f2357610100808354040283529160200191611f4e565b820191906000526020600020905b815481529060010190602001808311611f3157829003601f168201915b50505050509050828282869750975097509750505050509193509193565b6060806060600060606000600660003373ffffffffffffffffffffffffffffffffffffffff1673ffffffffffffffffffffffffffffffffffffffff1681526020019081526020016000206001018054611fc4906145d6565b80601f0160208091040260200160405190810160405280929190818152602001828054611ff0906145d6565b801561203d5780601f106120125761010080835404028352916020019161203d565b820191906000526020600020905b81548152906001019060200180831161202057829003601f168201915b505050505090506000600660003373ffffffffffffffffffffffffffffffffffffffff1673ffffffffffffffffffffffffffffffffffffffff1681526020019081526020016000206002018054612093906145d6565b80601f01602080910402602001604051908101604052809291908181526020018280546120bf906145d6565b801561210c5780601f106120e15761010080835404028352916020019161210c565b820191906000526020600020905b8154815290600101906020018083116120ef57829003601f168201915b505050505090506000600660003373ffffffffffffffffffffffffffffffffffffffff1673ffffffffffffffffffffffffffffffffffffffff1681526020019081526020016000206003018054612162906145d6565b80601f016020809104026020016040519081016040528092919081815260200182805461218e906145d6565b80156121db5780601f106121b0576101008083540402835291602001916121db565b820191906000526020600020905b8154815290600101906020018083116121be57829003601f168201915b505050505090506000600660003373ffffffffffffffffffffffffffffffffffffffff1673ffffffffffffffffffffffffffffffffffffffff1681526020019081526020016000206004015490506000600660003373ffffffffffffffffffffffffffffffffffffffff1673ffffffffffffffffffffffffffffffffffffffff1681526020019081526020016000206005018054612278906145d6565b80601f01602080910402602001604051908101604052809291908181526020018280546122a4906145d6565b80156122f15780601f106122c6576101008083540402835291602001916122f1565b820191906000526020600020905b8154815290600101906020018083116122d457829003601f168201915b5050505050905084848484849950995099509950995050505050509091929394565b6000600585604051612325919061492d565b908152602001604051809103902084604051612341919061492d565b90815260200160405180910390208360405161235d919061492d565b908152602001604051809103902060008381526020019081526020016000209050600115158160070160009054906101000a900460ff161515146123d6576040517f08c379a00000000000000000000000000000000000000000000000000000000081526004016123cd90614c06565b60405180910390fd5b6000816009015490503382600801600083815260200190815260200160002060000160006101000a81548173ffffffffffffffffffffffffffffffffffffffff021916908373ffffffffffffffffffffffffffffffffffffffff160217905550600660003373ffffffffffffffffffffffffffffffffffffffff1673ffffffffffffffffffffffffffffffffffffffff16815260200190815260200160002060070154826008016000838152602001908152602001600020600101819055508160090160008154809291906124aa9061455f565b91905055506000600460003373ffffffffffffffffffffffffffffffffffffffff1673ffffffffffffffffffffffffffffffffffffffff1681526020019081526020016000206000600660003373ffffffffffffffffffffffffffffffffffffffff1673ffffffffffffffffffffffffffffffffffffffff16815260200190815260200160002060070154815260200190815260200160002090508381600001819055508681600101908161255f91906147b3565b508581600201908161257191906147b3565b508481600301908161258391906147b3565b50600660003373ffffffffffffffffffffffffffffffffffffffff1673ffffffffffffffffffffffffffffffffffffffff16815260200190815260200160002060070160008154809291906125d79061455f565b919050555050505050505050565b6000806005866040516125f8919061492d565b908152602001604051809103902085604051612614919061492d565b908152602001604051809103902084604051612630919061492d565b9081526020016040518091039020600084815260200190815260200160002060070160009054906101000a900460ff16905080915050949350505050565b60008073ffffffffffffffffffffffffffffffffffffffff16600260003373ffffffffffffffffffffffffffffffffffffffff1673ffffffffffffffffffffffffffffffffffffffff16815260200190815260200160002060000160009054906101000a900473ffffffffffffffffffffffffffffffffffffffff1673ffffffffffffffffffffffffffffffffffffffff161415801561279b57503373ffffffffffffffffffffffffffffffffffffffff16600260003373ffffffffffffffffffffffffffffffffffffffff1673ffffffffffffffffffffffffffffffffffffffff16815260200190815260200160002060000160009054906101000a900473ffffffffffffffffffffffffffffffffffffffff1673ffffffffffffffffffffffffffffffffffffffff16145b156127a957600190506127ae565b600090505b90565b6000600660003373ffffffffffffffffffffffffffffffffffffffff1673ffffffffffffffffffffffffffffffffffffffff16815260200190815260200160002090508581600101908161280591906147b3565b508481600201908161281791906147b3565b508381600301908161282991906147b3565b508281600401819055508181600501908161284491906147b3565b50505050505050565b6000806000600587604051612862919061492d565b90815260200160405180910390208660405161287e919061492d565b90815260200160405180910390208560405161289a919061492d565b9081526020016040518091039020600085815260200190815260200160002060090154905060006005886040516128d1919061492d565b9081526020016040518091039020876040516128ed919061492d565b908152602001604051809103902086604051612909919061492d565b90815260200160405180910390206000868152602001908152602001600020600201549050818193509350505094509492505050565b600360205281600052604060002060205280600052604060002060009150915050806000015490806001018054612975906145d6565b80601f01602080910402602001604051908101604052809291908181526020018280546129a1906145d6565b80156129ee5780601f106129c3576101008083540402835291602001916129ee565b820191906000526020600020905b8154815290600101906020018083116129d157829003601f168201915b505050505090806002018054612a03906145d6565b80601f0160208091040260200160405190810160405280929190818152602001828054612a2f906145d6565b8015612a7c5780601f10612a5157610100808354040283529160200191612a7c565b820191906000526020600020905b815481529060010190602001808311612a5f57829003601f168201915b505050505090806003018054612a91906145d6565b80601f0160208091040260200160405190810160405280929190818152602001828054612abd906145d6565b8015612b0a5780601f10612adf57610100808354040283529160200191612b0a565b820191906000526020600020905b815481529060010190602001808311612aed57829003601f168201915b5050505050905084565b6000600360003373ffffffffffffffffffffffffffffffffffffffff1673ffffffffffffffffffffffffffffffffffffffff16815260200190815260200160002060008481526020019081526020016000206000015490506000600360003373ffffffffffffffffffffffffffffffffffffffff1673ffffffffffffffffffffffffffffffffffffffff16815260200190815260200160002060008581526020019081526020016000206001018054612bcc906145d6565b80601f0160208091040260200160405190810160405280929190818152602001828054612bf8906145d6565b8015612c455780601f10612c1a57610100808354040283529160200191612c45565b820191906000526020600020905b815481529060010190602001808311612c2857829003601f168201915b505050505090506000600360003373ffffffffffffffffffffffffffffffffffffffff1673ffffffffffffffffffffffffffffffffffffffff16815260200190815260200160002060008681526020019081526020016000206002018054612cac906145d6565b80601f0160208091040260200160405190810160405280929190818152602001828054612cd8906145d6565b8015612d255780601f10612cfa57610100808354040283529160200191612d25565b820191906000526020600020905b815481529060010190602001808311612d0857829003601f168201915b505050505090506000600360003373ffffffffffffffffffffffffffffffffffffffff1673ffffffffffffffffffffffffffffffffffffffff16815260200190815260200160002060008781526020019081526020016000206003018054612d8c906145d6565b80601f0160208091040260200160405190810160405280929190818152602001828054612db8906145d6565b8015612e055780601f10612dda57610100808354040283529160200191612e05565b820191906000526020600020905b815481529060010190602001808311612de857829003601f168201915b505050505090506000600584604051612e1e919061492d565b908152602001604051809103902083604051612e3a919061492d565b908152602001604051809103902082604051612e56919061492d565b90815260200160405180910390206000868152602001908152602001600020600801600087815260200190815260200160002060000160009054906101000a900473ffffffffffffffffffffffffffffffffffffffff1690506000600585604051612ec1919061492d565b908152602001604051809103902084604051612edd919061492d565b908152602001604051809103902083604051612ef9919061492d565b9081526020016040518091039020600087815260200190815260200160002060080160008881526020019081526020016000206001015490506000600586604051612f44919061492d565b908152602001604051809103902085604051612f60919061492d565b908152602001604051809103902084604051612f7c919061492d565b9081526020016040518091039020600088815260200190815260200160002060090154905060005b8181101561321f576000600588604051612fbe919061492d565b908152602001604051809103902087604051612fda919061492d565b908152602001604051809103902086604051612ff6919061492d565b908152602001604051809103902060008a8152602001908152602001600020600801600083815260200190815260200160002060000160009054906101000a900473ffffffffffffffffffffffffffffffffffffffff1690506000600589604051613061919061492d565b90815260200160405180910390208860405161307d919061492d565b908152602001604051809103902087604051613099919061492d565b908152602001604051809103902060008b81526020019081526020016000206008016000848152602001908152602001600020600101549050600460008373ffffffffffffffffffffffffffffffffffffffff1673ffffffffffffffffffffffffffffffffffffffff168152602001908152602001600020600082815260200190815260200160002060008082016000905560018201600061313b9190613999565b60028201600061314b9190613999565b60038201600061315b9190613999565b505060058960405161316d919061492d565b908152602001604051809103902088604051613189919061492d565b9081526020016040518091039020876040516131a5919061492d565b908152602001604051809103902060008b81526020019081526020016000206008016000848152602001908152602001600020600080820160006101000a81549073ffffffffffffffffffffffffffffffffffffffff021916905560018201600090555050505080806132179061455f565b915050612fa4565b5082600587604051613231919061492d565b90815260200160405180910390208660405161324d919061492d565b908152602001604051809103902085604051613269919061492d565b9081526020016040518091039020600089815260200190815260200160002060000160006101000a81548173ffffffffffffffffffffffffffffffffffffffff021916908373ffffffffffffffffffffffffffffffffffffffff16021790555060006005876040516132db919061492d565b9081526020016040518091039020866040516132f7919061492d565b908152602001604051809103902085604051613313919061492d565b9081526020016040518091039020600089815260200190815260200160002060070160006101000a81548160ff021916908315150217905550600060058760405161335e919061492d565b90815260200160405180910390208660405161337a919061492d565b908152602001604051809103902085604051613396919061492d565b9081526020016040518091039020600089815260200190815260200160002060090181905550600360003373ffffffffffffffffffffffffffffffffffffffff1673ffffffffffffffffffffffffffffffffffffffff16815260200190815260200160002060008a81526020019081526020016000206000808201600090556001820160006134259190613999565b6002820160006134359190613999565b6003820160006134459190613999565b50506000600660008573ffffffffffffffffffffffffffffffffffffffff1673ffffffffffffffffffffffffffffffffffffffff1681526020019081526020016000206006015490506000600360008673ffffffffffffffffffffffffffffffffffffffff1673ffffffffffffffffffffffffffffffffffffffff16815260200190815260200160002060008381526020019081526020016000209050888160000181905550878160010190816134fc91906147b3565b508681600201908161350e91906147b3565b508581600301908161352091906147b3565b5081600589604051613532919061492d565b90815260200160405180910390208860405161354e919061492d565b90815260200160405180910390208760405161356a919061492d565b908152602001604051809103902060008b815260200190815260200160002060040181905550600660008673ffffffffffffffffffffffffffffffffffffffff1673ffffffffffffffffffffffffffffffffffffffff16815260200190815260200160002060060160008154809291906135e39061455f565b91905055505050505050505050505050565b60008060008060008060058a60405161360e919061492d565b90815260200160405180910390208960405161362a919061492d565b908152602001604051809103902088604051613646919061492d565b9081526020016040518091039020600088815260200190815260200160002060000160009054906101000a900473ffffffffffffffffffffffffffffffffffffffff169050600060058b60405161369d919061492d565b90815260200160405180910390208a6040516136b9919061492d565b9081526020016040518091039020896040516136d5919061492d565b90815260200160405180910390206000898152602001908152602001600020600201549050600060058c60405161370c919061492d565b90815260200160405180910390208b604051613728919061492d565b90815260200160405180910390208a604051613744919061492d565b908152602001604051809103902060008a8152602001908152602001600020600401549050600060058d60405161377b919061492d565b90815260200160405180910390208c604051613797919061492d565b90815260200160405180910390208b6040516137b3919061492d565b908152602001604051809103902060008b8152602001908152602001600020600601549050600060058e6040516137ea919061492d565b90815260200160405180910390208d604051613806919061492d565b90815260200160405180910390208c604051613822919061492d565b908152602001604051809103902060008c8152602001908152602001600020600a015490508484848484995099509950995099505050505050945094509450945094565b600080600586604051613879919061492d565b908152602001604051809103902085604051613895919061492d565b9081526020016040518091039020846040516138b1919061492d565b908152602001604051809103902060008481526020019081526020016000209050600081600901549050600081036138ee5760009250505061398b565b60005b81811015613983573373ffffffffffffffffffffffffffffffffffffffff1683600801600083815260200190815260200160002060000160009054906101000a900473ffffffffffffffffffffffffffffffffffffffff1673ffffffffffffffffffffffffffffffffffffffff1603613970576001935050505061398b565b808061397b9061455f565b9150506138f1565b506000925050505b949350505050565b60015481565b5080546139a5906145d6565b6000825580601f106139b757506139d6565b601f0160209004906000526020600020908101906139d591906139d9565b5b50565b5b808211156139f25760008160009055506001016139da565b5090565b6000604051905090565b600080fd5b600080fd5b600073ffffffffffffffffffffffffffffffffffffffff82169050919050565b6000613a3582613a0a565b9050919050565b613a4581613a2a565b8114613a5057600080fd5b50565b600081359050613a6281613a3c565b92915050565b600080fd5b600080fd5b6000601f19601f8301169050919050565b7f4e487b7100000000000000000000000000000000000000000000000000000000600052604160045260246000fd5b613abb82613a72565b810181811067ffffffffffffffff82111715613ada57613ad9613a83565b5b80604052505050565b6000613aed6139f6565b9050613af98282613ab2565b919050565b600067ffffffffffffffff821115613b1957613b18613a83565b5b613b2282613a72565b9050602081019050919050565b82818337600083830152505050565b6000613b51613b4c84613afe565b613ae3565b905082815260208101848484011115613b6d57613b6c613a6d565b5b613b78848285613b2f565b509392505050565b600082601f830112613b9557613b94613a68565b5b8135613ba5848260208601613b3e565b91505092915050565b60008060008060808587031215613bc857613bc7613a00565b5b6000613bd687828801613a53565b945050602085013567ffffffffffffffff811115613bf757613bf6613a05565b5b613c0387828801613b80565b935050604085013567ffffffffffffffff811115613c2457613c23613a05565b5b613c3087828801613b80565b925050606085013567ffffffffffffffff811115613c5157613c50613a05565b5b613c5d87828801613b80565b91505092959194509250565b6000819050919050565b613c7c81613c69565b8114613c8757600080fd5b50565b600081359050613c9981613c73565b92915050565b60008060408385031215613cb657613cb5613a00565b5b6000613cc485828601613a53565b9250506020613cd585828601613c8a565b9150509250929050565b613ce881613c69565b82525050565b600081519050919050565b600082825260208201905092915050565b60005b83811015613d28578082015181840152602081019050613d0d565b60008484015250505050565b6000613d3f82613cee565b613d498185613cf9565b9350613d59818560208601613d0a565b613d6281613a72565b840191505092915050565b6000608082019050613d826000830187613cdf565b8181036020830152613d948186613d34565b90508181036040830152613da88185613d34565b90508181036060830152613dbc8184613d34565b905095945050505050565b60008060008060808587031215613de157613de0613a00565b5b600085013567ffffffffffffffff811115613dff57613dfe613a05565b5b613e0b87828801613b80565b945050602085013567ffffffffffffffff811115613e2c57613e2b613a05565b5b613e3887828801613b80565b935050604085013567ffffffffffffffff811115613e5957613e58613a05565b5b613e6587828801613b80565b9250506060613e7687828801613c8a565b91505092959194509250565b613e8b81613a2a565b82525050565b60008115159050919050565b613ea681613e91565b82525050565b600061014082019050613ec2600083018d613e82565b613ecf602083018c613e82565b613edc604083018b613cdf565b613ee9606083018a613cdf565b613ef66080830189613cdf565b613f0360a0830188613e9d565b613f1060c0830187613cdf565b613f1d60e0830186613e9d565b613f2b610100830185613cdf565b613f39610120830184613cdf565b9b9a5050505050505050505050565b600060208284031215613f5e57613f5d613a00565b5b6000613f6c84828501613a53565b91505092915050565b600061010082019050613f8b600083018b613e82565b8181036020830152613f9d818a613d34565b90508181036040830152613fb18189613d34565b90508181036060830152613fc58188613d34565b9050613fd46080830187613cdf565b81810360a0830152613fe68186613d34565b9050613ff560c0830185613cdf565b61400260e0830184613cdf565b9998505050505050505050565b60006020820190506140246000830184613e82565b92915050565b600080600080600080600080610100898b03121561404b5761404a613a00565b5b600089013567ffffffffffffffff81111561406957614068613a05565b5b6140758b828c01613b80565b985050602089013567ffffffffffffffff81111561409657614095613a05565b5b6140a28b828c01613b80565b975050604089013567ffffffffffffffff8111156140c3576140c2613a05565b5b6140cf8b828c01613b80565b96505060606140e08b828c01613c8a565b95505060806140f18b828c01613c8a565b94505060a06141028b828c01613a53565b93505060c06141138b828c01613c8a565b92505060e06141248b828c01613c8a565b9150509295985092959890939650565b60006020828403121561414a57614149613a00565b5b600061415884828501613c8a565b91505092915050565b6000608082019050818103600083015261417b8187613d34565b9050818103602083015261418f8186613d34565b905081810360408301526141a38185613d34565b90506141b26060830184613cdf565b95945050505050565b600080600080600060a086880312156141d7576141d6613a00565b5b600086013567ffffffffffffffff8111156141f5576141f4613a05565b5b61420188828901613b80565b955050602086013567ffffffffffffffff81111561422257614221613a05565b5b61422e88828901613b80565b945050604086013567ffffffffffffffff81111561424f5761424e613a05565b5b61425b88828901613b80565b935050606061426c88828901613c8a565b925050608061427d88828901613c8a565b9150509295509295909350565b600060808201905061429f6000830187613e82565b81810360208301526142b18186613d34565b905081810360408301526142c58185613d34565b905081810360608301526142d98184613d34565b905095945050505050565b60006040820190506142f96000830185613cdf565b6143066020830184613cdf565b9392505050565b600060a08201905081810360008301526143278188613d34565b9050818103602083015261433b8187613d34565b9050818103604083015261434f8186613d34565b905061435e6060830185613cdf565b81810360808301526143708184613d34565b90509695505050505050565b60006020820190506143916000830184613e9d565b92915050565b600080600080600060a086880312156143b3576143b2613a00565b5b600086013567ffffffffffffffff8111156143d1576143d0613a05565b5b6143dd88828901613b80565b955050602086013567ffffffffffffffff8111156143fe576143fd613a05565b5b61440a88828901613b80565b945050604086013567ffffffffffffffff81111561442b5761442a613a05565b5b61443788828901613b80565b935050606061444888828901613c8a565b925050608086013567ffffffffffffffff81111561446957614468613a05565b5b61447588828901613b80565b9150509295509295909350565b6000806040838503121561449957614498613a00565b5b60006144a785828601613c8a565b92505060206144b885828601613c8a565b9150509250929050565b600060a0820190506144d76000830188613e82565b6144e46020830187613cdf565b6144f16040830186613cdf565b6144fe6060830185613cdf565b61450b6080830184613cdf565b9695505050505050565b600060208201905061452a6000830184613cdf565b92915050565b7f4e487b7100000000000000000000000000000000000000000000000000000000600052601160045260246000fd5b600061456a82613c69565b91507fffffffffffffffffffffffffffffffffffffffffffffffffffffffffffffffff820361459c5761459b614530565b5b600182019050919050565b7f4e487b7100000000000000000000000000000000000000000000000000000000600052602260045260246000fd5b600060028204905060018216806145ee57607f821691505b602082108103614601576146006145a7565b5b50919050565b60008190508160005260206000209050919050565b60006020601f8301049050919050565b600082821b905092915050565b6000600883026146697fffffffffffffffffffffffffffffffffffffffffffffffffffffffffffffffff8261462c565b614673868361462c565b95508019841693508086168417925050509392505050565b6000819050919050565b60006146b06146ab6146a684613c69565b61468b565b613c69565b9050919050565b6000819050919050565b6146ca83614695565b6146de6146d6826146b7565b848454614639565b825550505050565b600090565b6146f36146e6565b6146fe8184846146c1565b505050565b5b81811015614722576147176000826146eb565b600181019050614704565b5050565b601f8211156147675761473881614607565b6147418461461c565b81016020851015614750578190505b61476461475c8561461c565b830182614703565b50505b505050565b600082821c905092915050565b600061478a6000198460080261476c565b1980831691505092915050565b60006147a38383614779565b9150826002028217905092915050565b6147bc82613cee565b67ffffffffffffffff8111156147d5576147d4613a83565b5b6147df82546145d6565b6147ea828285614726565b600060209050601f83116001811461481d576000841561480b578287015190505b6148158582614797565b86555061487d565b601f19841661482b86614607565b60005b828110156148535784890151825560018201915060208501945060208101905061482e565b86831015614870578489015161486c601f891682614779565b8355505b6001600288020188555050505b505050505050565b7f4f6e6c792061646d696e2063616e205265676973746572206c616e6400000000600082015250565b60006148bb601c83613cf9565b91506148c682614885565b602082019050919050565b600060208201905081810360008301526148ea816148ae565b9050919050565b600081905092915050565b600061490782613cee565b61491181856148f1565b9350614921818560208601613d0a565b80840191505092915050565b600061493982846148fc565b915081905092915050565b60008154614951816145d6565b61495b81866148f1565b94506001821660008114614976576001811461498b576149be565b60ff19831686528115158202860193506149be565b61499485614607565b60005b838110156149b657815481890152600182019150602081019050614997565b838801955050505b50505092915050565b60006149d38284614944565b915081905092915050565b7f41646d696e2063616e206f6e6c79207265676973746572206c616e64206f662060008201527f73616d6520636974792e00000000000000000000000000000000000000000000602082015250565b6000614a3a602a83613cf9565b9150614a45826149de565b604082019050919050565b60006020820190508181036000830152614a6981614a2d565b9050919050565b7f537572766579204e756d62657220616c7265616479207265676973746572656460008201527f2100000000000000000000000000000000000000000000000000000000000000602082015250565b6000614acc602183613cf9565b9150614ad782614a70565b604082019050919050565b60006020820190508181036000830152614afb81614abf565b9050919050565b7f50726f706572747920616c7265616479206d61726b656420617661696c61626c60008201527f6500000000000000000000000000000000000000000000000000000000000000602082015250565b6000614b5e602183613cf9565b9150614b6982614b02565b604082019050919050565b60006020820190508181036000830152614b8d81614b51565b9050919050565b7f546869732070726f7065727479206973204e4f54206d61726b656420666f722060008201527f73616c6521000000000000000000000000000000000000000000000000000000602082015250565b6000614bf0602583613cf9565b9150614bfb82614b94565b604082019050919050565b60006020820190508181036000830152614c1f81614be3565b905091905056fea26469706673582212209c52b3b203fc501aa73c47fa1a3dcea3074e752cb6ce847b11bf867f31013fdf64736f6c63430008130033",
  "immutableReferences": {},
  "source": "// SPDX-License-Identifier: MIT\npragma solidity ^0.8.19;\n\ncontract Registry{\n\n    address public superAdmin;\n    uint public totalAdmins;\n    \n    struct Admin{\n        address adminAddress;\n        string city;\n        string district;\n        string state;\n    }\n\n    struct LandDetails{\n        address owner;\n        address admin;\n        uint256 propertyId;\n        uint surveyNumber;\n        uint index;\n        bool registered;\n        uint marketValue;\n        bool markAvailable;\n        mapping(uint => RequestDetails) requests; // reqNo => RequestDetails\n        uint noOfRequests;  // other users requested to this land\n        uint sqft;\n    }\n\n    struct UserProfile{\n        address userAddr;\n        string fullName;\n        string gender;\n        string email;\n        uint256 contact;\n        string residentialAddr;\n        uint totalIndices;\n        uint requestIndices;  // this user requested to other lands\n    }\n\n    struct OwnerOwns{\n        uint surveyNumber;\n        string state;\n        string district;\n        string city;\n    }\n    \n    struct RequestedLands{\n        uint surveyNumber;\n        string state;\n        string district;\n        string city;\n    }\n\n    struct RequestDetails{\n        address whoRequested;\n        uint reqIndex;\n    }\n\n    mapping(address => Admin) public admins;\n    mapping(address => mapping(uint => OwnerOwns)) public ownerMapsProperty;  // ownerAddr => index no. => OwnerOwns \n    mapping(address => mapping(uint => RequestedLands)) public requestedLands;  // ownerAddr => reqIndex => RequestedLands\n    mapping(string => mapping(string => mapping(string => mapping(uint => LandDetails)))) public landDetalsMap; // state => district => city => surveyNo => LandDetails\n    mapping(address => UserProfile) public userProfile;\n    \n\n    constructor(){\n        superAdmin = msg.sender;\n    }\n\n    modifier onlyAdmin(){\n        require(admins[msg.sender].adminAddress == msg.sender, \"Only admin can Register land\");\n        _;\n    }\n\n\n    // SuperAdmin: Registers new admin\n    function addAdmin(address _adminAddr, string memory _state, string memory _district, string memory _city) external{\n        Admin storage newAdmin = admins[_adminAddr];\n        totalAdmins++;\n\n        newAdmin.adminAddress = _adminAddr;\n        newAdmin.city = _city;\n        newAdmin.district = _district;\n        newAdmin.state = _state;\n    }\n\n\n    // check if it is admin\n    // check if it is admin\nfunction isAdmin() external view returns (bool) {\n    if (admins[msg.sender].adminAddress != address(0) && admins[msg.sender].adminAddress == msg.sender) {\n        return true;\n    }\n    return false;\n}\n\n\n\n    // Admin: registers land\n    function registerLand(string memory _state, string memory _district, string memory _city, uint256 _propertyId, uint _surveyNo, address _owner, uint _marketValue, uint _sqft) external onlyAdmin{\n        \n        require(keccak256(abi.encodePacked(admins[msg.sender].state)) == keccak256(abi.encodePacked(_state))  \n        && keccak256(abi.encodePacked(admins[msg.sender].district)) == keccak256(abi.encodePacked(_district))\n        && keccak256(abi.encodePacked(admins[msg.sender].city)) == keccak256(abi.encodePacked(_city)), \"Admin can only register land of same city.\");\n\n        require(landDetalsMap[_state][_district][_city][_surveyNo].registered == false, \"Survey Number already registered!\");\n\n        LandDetails storage newLandRegistry = landDetalsMap[_state][_district][_city][_surveyNo];\n        OwnerOwns storage newOwnerOwns = ownerMapsProperty[_owner][userProfile[_owner].totalIndices];\n        \n\n        newLandRegistry.owner = _owner;\n        newLandRegistry.admin = msg.sender;\n        newLandRegistry.propertyId = _propertyId;\n        newLandRegistry.surveyNumber = _surveyNo;\n        newLandRegistry.index = userProfile[_owner].totalIndices;\n        newLandRegistry.registered = true;\n        newLandRegistry.marketValue = _marketValue;\n        newLandRegistry.markAvailable = false;\n        newLandRegistry.sqft = _sqft;\n\n        newOwnerOwns.surveyNumber = _surveyNo;\n        newOwnerOwns.state = _state;\n        newOwnerOwns.district = _district;\n        newOwnerOwns.city = _city;\n\n        userProfile[_owner].totalIndices++;\n    }\n\n\n    // User_1: set user profile\n    function setUserProfile(string memory _fullName, string memory _gender, string memory _email, uint256 _contact, string memory _residentialAddr) external{\n        \n        UserProfile storage newUserProfile = userProfile[msg.sender];\n\n        newUserProfile.fullName = _fullName;\n        newUserProfile.gender = _gender;\n        newUserProfile.email = _email;\n        newUserProfile.contact = _contact;\n        newUserProfile.residentialAddr = _residentialAddr;\n    }\n\n\n    // User_1: mark property available\n    function markMyPropertyAvailable(uint indexNo) external {\n        \n        string memory state = ownerMapsProperty[msg.sender][indexNo].state;\n        string memory district = ownerMapsProperty[msg.sender][indexNo].district;\n        string memory city = ownerMapsProperty[msg.sender][indexNo].city;\n        uint surveyNumber = ownerMapsProperty[msg.sender][indexNo].surveyNumber;\n\n        require(landDetalsMap[state][district][city][surveyNumber].markAvailable == false, \"Property already marked available\");\n\n        landDetalsMap[state][district][city][surveyNumber].markAvailable = true;\n    \n    }\n\n\n    // User_2: Request for buy  **ownerAddress & index = arguements** \n    function RequestForBuy(string memory _state, string memory _district, string memory _city, uint _surveyNo) external{\n\n        LandDetails storage thisLandDetail = landDetalsMap[_state][_district][_city][_surveyNo];\n        require(thisLandDetail.markAvailable == true, \"This property is NOT marked for sale!\");\n\n        uint req_serialNum = thisLandDetail.noOfRequests; \n        thisLandDetail.requests[req_serialNum].whoRequested = msg.sender;\n        thisLandDetail.requests[req_serialNum].reqIndex = userProfile[msg.sender].requestIndices;\n        thisLandDetail.noOfRequests++;\n\n        // adding requested land to user_2 profile\n        RequestedLands storage newReqestedLands = requestedLands[msg.sender][userProfile[msg.sender].requestIndices];\n        newReqestedLands.surveyNumber = _surveyNo;\n        newReqestedLands.state = _state;\n        newReqestedLands.district = _district;\n        newReqestedLands.city = _city;\n\n        userProfile[msg.sender].requestIndices++;\n\n    }\n\n\n    // User_1: Accept the buy request; sell.\n    function AcceptRequest(uint _index, uint _reqNo) external{\n\n        uint _surveyNo = ownerMapsProperty[msg.sender][_index].surveyNumber;\n        string memory _state = ownerMapsProperty[msg.sender][_index].state; \n        string memory _district = ownerMapsProperty[msg.sender][_index].district;\n        string memory _city = ownerMapsProperty[msg.sender][_index].city;\n        \n        // updating LandDetails\n        address newOwner = landDetalsMap[_state][_district][_city][_surveyNo].requests[_reqNo].whoRequested;\n        uint newOwner_reqIndex = landDetalsMap[_state][_district][_city][_surveyNo].requests[_reqNo].reqIndex;\n        uint noOfReq = landDetalsMap[_state][_district][_city][_surveyNo].noOfRequests;\n\n        // deleting requested land from all requesters AND removing all incoming requests\n        for(uint i=0; i<noOfReq; i++){\n            address requesterAddr = landDetalsMap[_state][_district][_city][_surveyNo].requests[i].whoRequested;\n            uint requester_reqIndx = landDetalsMap[_state][_district][_city][_surveyNo].requests[i].reqIndex;\n            \n            delete requestedLands[requesterAddr][requester_reqIndx];\n            delete landDetalsMap[_state][_district][_city][_surveyNo].requests[i];\n        }\n\n        landDetalsMap[_state][_district][_city][_surveyNo].owner = newOwner;\n        landDetalsMap[_state][_district][_city][_surveyNo].markAvailable = false;\n        landDetalsMap[_state][_district][_city][_surveyNo].noOfRequests = 0;\n\n        // deleting property from user_1's ownerMapsProperty \n        delete ownerMapsProperty[msg.sender][_index];\n\n        // adding ownerMapsProperty for newOwner\n        uint newOwnerTotProp = userProfile[newOwner].totalIndices;\n        OwnerOwns storage newOwnerOwns = ownerMapsProperty[newOwner][newOwnerTotProp];\n       \n        newOwnerOwns.surveyNumber = _surveyNo;\n        newOwnerOwns.state = _state;\n        newOwnerOwns.district = _district;\n        newOwnerOwns.city = _city;\n\n        landDetalsMap[_state][_district][_city][_surveyNo].index = newOwnerTotProp;\n\n        userProfile[newOwner].totalIndices++;\n\n    }\n\n\n    \n    //******* GETTERS **********\n\n    // return land details \n    function getLandDetails(string memory _state, string memory _district, string memory _city, uint _surveyNo) external view returns(address, uint256, uint, uint, uint){\n        \n        address owner = landDetalsMap[_state][_district][_city][_surveyNo].owner;\n        uint256 propertyid = landDetalsMap[_state][_district][_city][_surveyNo].propertyId;\n        uint indx = landDetalsMap[_state][_district][_city][_surveyNo].index;\n        uint mv = landDetalsMap[_state][_district][_city][_surveyNo].marketValue;\n        uint sqft = landDetalsMap[_state][_district][_city][_surveyNo].sqft;\n\n        return(owner, propertyid, indx, mv, sqft);\n    }\n\n    function getRequestCnt_propId(string memory _state, string memory _district, string memory _city, uint _surveyNo) external view returns(uint, uint256){\n        uint _noOfRequests = landDetalsMap[_state][_district][_city][_surveyNo].noOfRequests;\n        uint256 _propertyId = landDetalsMap[_state][_district][_city][_surveyNo].propertyId;\n        return(_noOfRequests, _propertyId);\n    }\n\n    function getRequesterDetail(string memory _state, string memory _district, string memory _city, uint _surveyNo, uint _reqIndex) external view returns(address){\n        address requester = landDetalsMap[_state][_district][_city][_surveyNo].requests[_reqIndex].whoRequested;\n        return(requester);\n    }\n\n    function isAvailable(string memory _state, string memory _district, string memory _city, uint _surveyNo) external view returns(bool){\n        bool available = landDetalsMap[_state][_district][_city][_surveyNo].markAvailable;\n        return(available);\n    }\n\n    function getOwnerOwns(uint indx) external view returns(string memory, string memory, string memory, uint){\n        \n        uint surveyNo = ownerMapsProperty[msg.sender][indx].surveyNumber;\n        string memory state = ownerMapsProperty[msg.sender][indx].state;\n        string memory district = ownerMapsProperty[msg.sender][indx].district;\n        string memory city = ownerMapsProperty[msg.sender][indx].city;\n\n        return(state, district, city, surveyNo);\n    }\n\n    function getRequestedLands(uint indx) external view returns(string memory, string memory, string memory, uint){\n        \n        uint surveyNo = requestedLands[msg.sender][indx].surveyNumber;\n        string memory state = requestedLands[msg.sender][indx].state;\n        string memory district = requestedLands[msg.sender][indx].district;\n        string memory city = requestedLands[msg.sender][indx].city;\n\n        return(state, district, city, surveyNo);\n    }\n\n    function getUserProfile() external view returns(string memory, string memory, string memory, uint256, string memory){\n        \n        string memory fullName = userProfile[msg.sender].fullName;\n        string memory gender = userProfile[msg.sender].gender;\n        string memory email = userProfile[msg.sender].email;\n        uint256 contact = userProfile[msg.sender].contact;\n        string memory residentialAddr = userProfile[msg.sender].residentialAddr;\n\n        return(fullName, gender, email, contact, residentialAddr);\n    }\n\n    function getIndices() external view returns(uint, uint){\n\n        uint _totalIndices = userProfile[msg.sender].totalIndices;\n        uint _reqIndices = userProfile[msg.sender].requestIndices;\n\n        return(_totalIndices, _reqIndices);\n    }\n\n\n    function didIRequested(string memory _state, string memory _district, string memory _city, uint _surveyNo) external view returns(bool){\n        \n        LandDetails storage thisLandDetail = landDetalsMap[_state][_district][_city][_surveyNo];\n        uint _noOfRequests = thisLandDetail.noOfRequests;\n\n        if(_noOfRequests == 0) \n            return (false);\n\n        for(uint i=0; i<_noOfRequests; i++){\n            if(thisLandDetail.requests[i].whoRequested == msg.sender){\n                return (true);\n            }\n        } \n\n        return(false);\n    } \n\n}",
  "sourcePath": "C:\\Users\\visha\\OneDrive\\Desktop\\desktop\\coding\\land-registration-frontend\\contracts\\Registry.sol",
  "compiler": {
    "name": "solc",
    "version": "0.8.19+commit.7dd6d404.Emscripten.clang"
  },
  "schemaVersion": "3.4.16",
  "updatedAt": "2024-09-29T12:12:19.920Z",
  "devdoc": {
    "kind": "dev",
    "methods": {},
    "version": 1
  },
  "userdoc": {
    "kind": "user",
    "methods": {},
    "version": 1
  }
}